:020000002829AD
:0E000600533083120313FD00FD0B0728080082
:0C001400000000000000000000000800D8
:10002000243083120313FC00B530FD00FD0B1628AD
:0A003000FC0B162800000000080079
:10003A0083120313E41B2328861224288616641BC2
:10004A002828061229280616E41A2D2886112E2891
:10005A008615641A32280611332806155D183728C2
:10006A0006143828061086140A208610E4193F2838
:10007A008612402886166419442806124528061650
:10008A00E418492886114A28861564184E2806114C
:10009A004F2806155D18532806145428061086148E
:1000AA000A2086105D1C5B2810205C2803200800AB
:1000BA00831203135D106308E4001D205D14080019
:0E00CA00831203135C088A005B0882000800A2
:1000D800831603138610061006118611061286125F
:1000E8008312861006108612061286110611102039
:1000F800102010208615061586140A208610102058
:1001080086140A208610102086140A2086101020D3
:10011800061186140A208610102086140A208610DC
:100128008611861686140A20861010208612061557
:1001380086140A208610061186140A2086101020BC
:1001480086140A208610061586140A2086101020A8
:10015800061186140A2086108616061686150615B8
:0C01680086140A20861010205D14080088
:10017400CC28803083120313DF00DF28C030DF0077
:10018400DF289430DF00DF28D430DF00DF28803020
:10019400DF00DF28831203135F08013A0319BB2829
:1001A4005F08023A0319C0285F08033A0319C328F9
:1001B4005F08043A0319C628C9286003F0005F08E1
:1001C400F0077008DF007008E4001D205D10E201F4
:1001D40062086107840000080319F82862086107AF
:1001E40084000008E3005D20E20AEA285D140800A8
:1001F400831603139816903083129800831687177A
:10020400071383128C1E09291A08F0000329080019
:0E0214000030831203138C1A0130F000080032
:10022200831203131A08F100981C192918121816C0
:060232007108F000080055
:1002380065208A110A128000840ADB0A0319DC0A85
:08024800F003031D1C2908004E
:10025000E621831603138801831288016C200C3079
:10026000E4001D208130831699001815FA20033010
:10027000FB008A30FC005530FD00FD0B3D29FC0BD6
:100280003D29FB0B3D29000000000130DF0001305B
:10029000E0004C30E100BA200230DF000130E00025
:1002A0003F30E100BA201A30FB005E30FC006E30B7
:1002B000FD00FD0B5929FC0B5929FB0B59290000A6
:1002C0000130E4001D200A2170080319A42911211E
:1002D0007008DE007008313A031D7B290130E4000C
:1002E0001D200230DF000130E0002630E100BA209E
:1002F00008148810A4295E08323A031D8C290130A5
:10030000E4001D200230DF000130E0002030E10079
:10031000BA2088140810A42988015E08303A031D09
:10032000A1290130E4001D200230DF000130E0008F
:100330002C30E100BA20881008100230E4001D20A3
:0C034000A4295E08E3005D206329A529C4
:1003CC00203084003B3083120313F000AB30DB0091
:0803DC000130DC001C210800C7
:0C035600763461346E346E34653400344B
:0C03620070346F346D3470346534003436
:10036E00703475346D347034203461346E346434CA
:10037E002034763461346E346E34653420346F3408
:06038E0066346634003401
:100394004534783470346C34613469346E342034C8
:0A03A400553441345234543400340F
:1003AE00573465346C3463346F346D3465342034B3
:0E03BE0069346E3420345E345F345E340034B3
:02400E004A2F37
:00000001FF
